:100000000128831603133A20A001033020020318AD
:100010001D2886141930AC00AD01392186108615D3
:100020001930AC00AD013921861106161930AC002B
:10003000AD0139210612A00A05288614BA208C1EAB
:100040002628FD201A08B0007F20BA20851D1F2811
:100050006020061E2E28061286143728861D332897
:10006000861106163728861C372886108615300814
:1000700099001F2870308F000F1D3C289B0107300E
:100080009C00831285013C30831685008312860113
:10009000C530831686001815333099001812831264
:1000A000981718168316981683128C1283168C16BE
:1000B0000B178B178312B001B101B201B301080015
:1000C0000513B001A1010430210203187D28A2010B
:1000D00008302202031875280310A30D23100519F8
:1000E000231485148510A20A682830302107840063
:1000F000831323088000A10A632805170800051749
:100100000130AC00AD013921A101053021020318F5
:100110009C28E730A400A2010830220203189A2884
:10012000A41F0511A41B0515851485100310A40D2B
:10013000A20A8C28A10A8528A101043021020318F3
:10014000B82830302107840083130008A300A201DF
:10015000083022020318B628A31F0511A31B05159A
:10016000851485100310A30DA20AA828A10A9D28B2
:1001700005130800850138308316850083120513A6
:1001800005140130AC00AD013921E730AA00A90007
:10019000A800A700A6000530A3006E30A400A1307F
:1001A000A5000830A200A2080319EF28A101083019
:1001B00021020318ED282230220784008313801FB8
:1001C0000511801B05158514851022302207840037
:1001D00083130310800DA10AD728A203D328051387
:1001E000051085013C308316850001308312AC0078
:1001F000AD01392105170510080085013830831637
:1002000085008312051305140130AC00AD013921BE
:10021000E730AA00A900A800A700A6000430A300A8
:100220006E30A400A130A5000330A200A20803197B
:100230003229A10108302102031830292230220777
:1002400084008313801F0511801B051585148510FC
:1002500022302207840083130310800DA10A1A297B
:10026000A20316290130AC00AD0139210513051098
:1002700008002C082D0403195029AE0104302E0269
:1002800003184B29AF01B0302F0203184929AF0AD8
:100290004329AE0A3E29AC032C0A0319AD033929C0
:0202A000080054
:02400E00303F41
:00000001FF
