:020000000428D2
:10000800462083120313A001053083120313200234
:100018000318202886170A30A200A3016A22831237
:100028000313861305150A30A200A3016A2283125E
:1000380003130511A00A0828682083120313051862
:100048002128A001053083120313200203183E283B
:1000580086170A30A200A3016A22831203138613AB
:1000680005150A30A200A3016A22831203130511A1
:10007800A00A2628C83083120313A200A3016A220B
:10008800D92121287030831603138F008316031398
:100098000F1D4A28831603139B0107309C00831207
:1000A8008501FB30831685000230831286004430B8
:1000B8008316860018110C309900181283129817AD
:1000C8001816831698160800831203138610061054
:1000D8003930A4002030A500A20108308312031390
:1000E800220203188128A51F0612A51B06168615CD
:1000F80086110310A50DA20A712883120313A20109
:10010800083083120313220203189428A41F06122E
:10011800A41B0616861586110310A40DA20A8428AE
:100128008312031386148610A4012130A500A201AE
:1001380008308312031322020318AC28A51F0612E5
:10014800A51B0616861586110310A50DA20A9C2864
:1001580083120313A2010830831203132202031827
:10016800BF28A41F0612A41B0616861586110310A5
:10017800A40DA20AAF288312031386148610033035
:10018800A4002330A500A201083083120313220221
:100198000318D828A51F0612A51B06168615861152
:1001A8000310A50DA20AC82883120313A201083060
:1001B8008312031322020318EB28A41F0612A41BA0
:1001C8000616861586110310A40DA20ADB288312D1
:1001D8000313861486100730A4002630A500A20158
:1001E800083083120313220203180429A51F0612DC
:1001F800A51B0616861586110310A50DA20AF4285C
:1002080083120313A2010830831203132202031876
:100218001729A41F0612A41B06168615861103109B
:10022800A40DA20A0729831203138614861004302A
:10023800A4003130A500A201083083120313220262
:1002480003183029A51F0612A51B06168615861148
:100258000310A50DA20A202983120313A201083056
:1002680083120313220203184329A41F0612A41B96
:100278000616861586110310A40DA20A33298312C7
:100288000313861486100230A4002530A500A201AD
:10029800083083120313220203185C29A51F0612D3
:1002A800A51B0616861586110310A50DA20A4C2952
:1002B80083120313A20108308312031322020318C6
:1002C8006F29A41F0612A41B061686158611031093
:1002D800A40DA20A5F298312031386148610E7303F
:1002E800A4003030A500A2010830831203132202B3
:1002F80003188829A51F0612A51B06168615861140
:100308000310A50DA20A782983120313A30105304F
:100318008312031323020318A829A20108308312A9
:10032800031322020318A229A41F0612A41B0616EF
:10033800861586110310A40DA20A9229E7308312AC
:100348000313A400A30A8B298312031386148610AF
:100358003B30A4002030A500A2010830831203130B
:1003680022020318C129A51F0612A51B0616861509
:1003780086110310A50DA20AB12983120313A20145
:1003880008308312031322020318D429A41F06126B
:10039800A41B0616861586110310A40DA20AC429EB
:1003A80083120313861406140800613083120313A2
:1003B800A5008610A2010830831203132202031835
:1003C800EF29A51F0612A51B061686158611031010
:1003D800A50DA20ADF2983120313A3010430831297
:1003E800031323020318132AA401A201083083125D
:1003F800031322020318092A0310A40D86152410DA
:10040800061B24148611A20AFA29831203130C1E50
:10041800092A8312031324089900A30AF2298312D4
:1004280003138614831203130C1E162A0A30831230
:1004380003139900831203130C1E1E2A0D30831216
:1004480003139900E230A5008610A2010830831238
:100458000313220203183A2AA51F0612A51B061623
:10046800861586110310A50DA20A2A2A83120313E2
:10047800861486102730A5004030A400A201083059
:100488008312031322020318532AA51F0612A51B61
:100498000616861586110310A50DA20A432A831293
:1004A8000313A20108308312031322020318662AD9
:1004B800A41F0612A41B0616861586110310A40D88
:1004C800A20A562A83120313861408008312031300
:1004D8002208230403198B2AA4010430831203136E
:1004E80024020318842AA501B030831203132502BD
:1004F8000318802AA50A782A83120313A40A712AEA
:1005080083120313A203220A0319A3036A2A080009
:00000001FF
