:020000000428D2
:10000800322083120313A001053083120313200248
:100018000318202886170A30A600A701B8228312E1
:100028000313861305150A30A600A701B822831208
:1000380003130511A00A0828702154208312031302
:1000480086170A30A600A701B82283120313861365
:10005800F430A6000130A700B8222128703083169A
:1000680003138F00831603130F1D362883160313FB
:100078009B0107309C0083128501FB3083168500A5
:1000880002308312860044308316860018110C3023
:1000980099001812831298171816831698160800D4
:1000A8008312031386107E30A3002730A400A20118
:1000B800083083120313220203187928A41F06129A
:1000C800A41B061686152510061B25148611031079
:1000D800A40D831203130C1E6D28303083120313F2
:1000E800251831309900A20A5C28831203130C1ECC
:1000F80079282C30831203139900831203130C1EE2
:1001080081282030831203139900A201083083123A
:100118000313220203189A28A31F0612A31B06160C
:10012800861586110310A30DA20A8A2883120313C9
:10013800861486103A30A3002030A400A2010830AB
:100148008312031322020318B328A41F0612A41B48
:100158000616861586110310A40DA20AA328831279
:100168000313A20108308312031322020318C628BE
:10017800A31F0612A31B0616861586110310A30DCE
:10018800A20AB6288312031386148610E130A4004D
:10019800A20108308312031322020318DD28A41FCA
:1001A8000612A41B0616861586110310A40DA20AB2
:1001B800CD28831203138614861025103430A3002B
:1001C800A030A400A20108308312031322020318EE
:1001D8000429A41F0612A41B061686152510061B43
:1001E800251486110310A40D831203130C1EF8287E
:1001F800303083120313251831309900A20AE728FA
:10020800831203130C1E04290A3083120313990066
:10021800831203130C1E0C290D308312031399004B
:10022800A201083083120313220203182529A31FF1
:100238000612A31B0616861586110310A30DA20A23
:100248001529333083120313A300A2010830831247
:100258000313220203183A29A31F0612A31B06162A
:10026800861586110310A30DA20A2A29323083129B
:100278000313A300A20108308312031322020318F8
:100288004F29A31F0612A31B0616861586110310F5
:10029800A30DA20A3F29313083120313A300A20140
:1002A800083083120313220203186429A31F0612BD
:1002B800A31B0616861586110310A30DA20A54293E
:1002C80083120313861406140130A600A701B8226E
:1002D800831203130610080083120313A5010610E6
:1002E80086102030A6003830A400A20108308312FE
:1002F8000313220203188A29A61F0612A61B061634
:10030800861586110310A60DA20A7A2983120313F3
:10031800A201083083120313220203189D29A41F87
:100328000612A41B0616861586110310A40DA20A30
:100338008D298312031386148610A4012430A60085
:10034800A20108308312031322020318B529A61F3D
:100358000612A61B0616861586110310A60DA20AFC
:10036800A52983120313A201083083120313220262
:100378000318C829A41F0612A41B06168615861181
:100388000310A40DA20AB829831203138614861039
:100398000330A4002330A600A201083083120313FF
:1003A80022020318E629A61F0612A61B06168615A2
:1003B8002510061B251486110310A50D0310A60D84
:1003C800A20AD12983120313A2010830831203134E
:1003D80022020318F929A41F0612A41B0616861563
:1003E80086110310A40DA20AE929831203138614A7
:1003F80086100730A4002630A600A2010830831218
:10040800031322020318122AA61F0612A61B061699
:10041800861586110310A60DA20A022A8312031359
:10042800A20108308312031322020318252AA41FED
:100438000612A41B0616861586110310A40DA20A1F
:10044800152A83120313861486100230A40025305F
:10045800A600A201083083120313220203183E2AC1
:10046800A61F0612A61B0616861586110310A60DD2
:10047800A20A2E2A83120313A2010830831203133F
:1004880022020318512AA41F0612A41B0616861559
:1004980086110310A40DA20A412A8312031386149D
:1004A800E730A4003030A600A201083083120313FD
:1004B80022020318692AA61F0612A61B061686150D
:1004C80086110310A60DA20A592A83120313A30149
:1004D80005308312031323020318892AA201083066
:1004E8008312031322020318832AA41F0612A41BD3
:1004F8000616861586110310A40DA20A732AE73082
:1005080083120313A400A30A6C2A8312031386140C
:100518008610A4012130A600A2010830831203131B
:1005280022020318A12AA61F0612A61B0616861564
:1005380086110310A60DA20A912A83120313A201A1
:1005480008308312031322020318B42AA41F0612C8
:10055800A41B0616861586110310A40DA20AA42A48
:100568008312031386140800831203132608270432
:100578000319D92AA8010430831203132802031887
:10058800D22AA901B0308312031329020318CE2AF4
:10059800A90AC62A83120313A80ABF2A83120313BF
:0C05A800A603260A0319A703B82A0800BE
:00000001FF
